S00E00007465737471742E7372656371
S11300000C945A000C9477000C9477000C947700AD
S11300100C9477000C9477000C9477000C94770080
S11300200C9477000C9477000C9477000C94770070
S11300300C9477000C9477000C947E000C94770059
S11300400C9477000C9477000C9477000C94770050
S11300500C9477000C9477000C9477000C94770040
S11300600C9477000C9477000C9477000C94770030
S11300700C9477000C9477000C9477000C94770020
S11300800C9477000C9477000C9477000C94770010
S11300900C9477000C9485020C9477000C947700F0
S11300A00C9477000C9477000C9477000C947700F0
S11300B00C94770011241FBECFEFD8E0DEBFCDBF74
S11300C011E0A0E0B1E0E4ECF7E102C005900D928C
S11300D0A435B107D9F721E0A4E5B1E001C01D9230
S11300E0A438B207E1F70E9409010C94E00B0C94C8
S11300F000000E94B0020E94D00108951F920F9246
S11301000FB60F9211242F933F934F935F936F93E6
S11301107F938F939F93AF93BF93EF93FF930E942B
S11301203802A89AFF91EF91BF91AF919F918F915F
S11301307F916F915F914F913F912F910F900FBEDF
S11301400F901F90189580915401909155019C0136
S1130150245031092930310580F04BB1FC01E050C5
S1130160FF4F21E030E0C901008002C0880F991FD1
S11301700A94E2F7842B8BB908958830910584F4AE
S113018048B1FC01E050FF4F21E030E0C90100809C
S113019002C0880F991F0A94E2F7842B88B9089546
S11301A045B1FC01E050FF4F21E030E0C90100807F
S11301B002C0880F991F0A94E2F7842B85B9089529
S11301C0181619066CF420E030E0EFE1FEE43197F4
S11301D0F1F700C000002F5F3F4F82179307A9F784
S11301E008958BB11BB885B115B888B118B80E94B1
S11301F0A300809154019091550101968F70992725
S113020090935501809354018AE090E00E94E000AD
S113021008950E9479008AB18AB984B184B987B1FA
S113022087B985B115B88BB11BB888B118B8789463
S11302300E94F1000E94F60180E090E00E947602A4
S1130240882314F42D9AF6CF2D98F4CF0895CF93E4
S1130250C82F0E94FD028823E1F38C2F0E940B0318
S11302600E9403038111FCCFCF910895EF92FF9276
S11302700F931F93CF93DF9300D0CDB7DEB7809158
S113028056018F7081F400E111E00F2EF3E2EF2E9E
S1130290F1E0FF2EF02DF80181918F010E942701DA
S11302A0E016F106C1F785E50E9427018091560109
S11302B00E9427011A82198289819A81892B09F067
S11302C053C089819A810E944F02192F0E942701ED
S11302D0812F0E94270189819A810E945C02192F33
S11302E00E942701812F0E94270189819A810E94FF
S11302F04F028C0189819A810E945C02081B190BB0
S1130300802F0E942701812F0E94270189819A81D1
S11303100E946902192F0E942701812F0E94270140
S113032089819A810E947602882324F481E00E94C4
S1130330270103C080E00E94270189819A81FC0182
S1130340EE0FFF1F8E0F9F1FFC01E55DFE4F8081A6
S11303500E94270189819A8101969A8389838981E0
S11303609A81892B09F4ADCF809159010E9427010C
S11303708091560191E0980F909356010E942701B5
S11303808AEA0E9427010F900F90DF91CF911F916D
S11303900F91FF90EF90089581E080935B010895A1
S11303A088E087BDE5E6F0E080818F7E80837398E6
S11303B088E391E00E94A70988E791E00E942E0A51
S11303C060E070E088E391E00E94310B60E070E04F
S11303D088E391E00E94500B43E751E060E083E240
S11303E091E00E9487030E942601089580915C0198
S11303F0813051F46CEC71E088E391E00E94380A9A
S1130400811102C010925C0180915B01813039F549
S113041010925B010E94400881110CC083E291E0BC
S11304200E94A603882359F082E0809359010E9418
S1130430360105C081E0809359010E943601E091A4
S11304402301F09124018081882324F481E08093A6
S11304505C0103C081E080935A010E943601089533
S113046081E080935C0184E190E00E947C03089524
S11304708091570190915801449739F41092580192
S1130480109257010E943002089580915701909173
S113049058010196909358018093570108959C0147
S11304A0220F331F220F331F820F931FFC01ED58BD
S11304B0FE4F8181928108959C01220F331F820F88
S11304C0931FFC01EE0FFF1FE658FE4F84819581B8
S11304D008959C01220F331F220F331F820F931F95
S11304E0FC01ED58FE4F8381948108959C01220FF5
S11304F0331F820F931F880F991FE0912701F091FA
S11305002801E80FF91F808108951F920F920FB6FA
S11305100F9211242F933F934F935F936F937F9385
S11305208F939F93AF93BF93EF93FF930E94900B8E
S1130530FF91EF91BF91AF919F918F917F916F91B7
S11305405F914F913F912F910F900FBE0F901F908D
S1130550189550985898519A59980E94EC02089509
S11305608DE3809365008FEF8093640094B114B899
S113057095B185B997B1907897B998B19F6798B9B3
S11305809AB11AB89BB18BB98DB1807F8DB98EB1F8
S11305908F608EB940E060E881E690E00E94D80266
S11305A013BE15BE78940E94DF020E94A90208952A
S11305B02FB7F894FC01608340832FBF0895E4E6CD
S11305C0F0E080818F7D808382E084BD95E095BDDD
S11305D080936E0080E00895E4E6F0E080818D7FF2
S11305E080831092C5008CE08093C4001092C000F8
S11305F088E08093C10080E008958091C00085FB6D
S1130600882780F908958091C00086FB882780F9A7
S113061091E089270895E0ECF0E0908195FFFDCF0B
S11306208093C6000895CF92DF92FF920F931F9399
S1130630CF93DF93EC01AE81BF81EB01CC0FDD1FC3
S1130640C60FD71FCA0FDB1FFA80FC0144815581F6
S1130650E6E0E69F9001E79F300D11248A01020F26
S1130660131FF80122813381F90121813281F801BC
S113067004811581201B310BE8812E1B3109EC010B
S1130680EA81FB8100811181FA0140E050E04017CA
S1130690510739F146175707F9F012968C911297C2
S11306A0F8121AC0808185588230E8F0C480D58061
S11306B082819381EC0189819A81C816D90660F4FC
S11306C08C199D09CC91D0E0C817D90728F48C1B4C
S11306D09D0B2817390738F04F5F5F4F13963696F6
S11306E0D6CF80E001C081E0DF91CF911F910F91BF
S11306F0FF90DF90CF90089520915D0130915E01CD
S1130700820F931F90935E0180935D01089500977B
S1130710D9F041155105C1F026E0629FB0011124C2
S1130720DC011496ED91FC911597E60FF71F21E07B
S1130730208314968D919C911597FC01E60FF71F69
S11307405383428380E008958BE008952F923F9273
S11307504F925F926F927F928F929F92AF92BF92CD
S1130760CF92DF92EF92FF920F931F93CF93DF9379
S1130770009709F47DC3EC01A12CB12C812C912CA0
S1130780212CD12C33E0C32E45E8642E56E8752E77
S113079067E0362E72E0472EE8E05E2EEA81FB81A8
S11307A0808191818816990608F0A5C17501EE0C27
S11307B0FF1C0C811D810E0D1F1DD8018C918430EE
S11307C009F4A2C038F4823001F108F049C0813044
S11307D059F08AC1853809F4C4C0863809F4F8C0D0
S11307E0873009F081C139C1D8011296ED91FC918D
S11307F0139780818E7109F069C14C928C819D811F
S1130800FC01EE0DFF1D518261C1F80121812223FB
S113081029F10280F381E02D253020F0818192813D
S1130820D8010EC0D80114968D919C9115974181E1
S113083052818417950769F04817590730F40197D6
S113084015969C938E93149704C00196F801958392
S113085084832150D80111962C9338C1F80130C1FA
S1130860D80114962D913C91159712968D919C91D7
S11308701397DC0111964D915C911297241735075B
S113088009F432C18E819F8142175307E0F4241B7F
S1130890350BDC01AA0DBB1D8C9190E0058002C0D4
S11308A0959587950A94E2F799272817390708F44C
S11308B01BC18481882309F417C1F8013082EA81BD
S11308C0FB8124811AC0FC01EA0DFB1D421B530B62
S11308D0808190E04817590708F406C18281882373
S11308E031F0B401CE010E9413038111FDC0E4E094
S11308F0D801EC93EA81FB8122818C819D81FC01EA
S1130900EE0DFF1D2183E2C0D80114962D913C9178
S113091015971296ED91FC9113978181928182171C
S1130920930710F4CC92D7C0EE81FF81EA0DFB1D32
S1130930821B930B208130E02817390708F0C9C0C7
S11309408281882331F0B401CE010E941303811106
S1130950CBC0F8018181882309F468C08150818368
S1130960B5C0A881B981808513968C93EC81FD81F3
S1130970EE0DFF1D44815581A281B38111968D91A5
S11309809C91129784179507C0F0AE81BF81AA0D80
S1130990BB1D6C91262F30E011967C917F5F02C0C5
S11309A0359527957A95E2F7841B950B621B262FC4
S11309B030E02817390708F495C07082EA81FB817A
S11309C022818C819D81FC01EE0DFF1D218342C09B
S11309D0D80114966D917C9115971296ED91FC9126
S11309E01397218132812617370758F411968C9179
S11309F01197811102C0CC9275C08150F801818396
S1130A0071C0EE81FF81EA0DFB1D8081482F50E00B
S1130A1091819F5F02C0559547959A95E2F7261BF1
S1130A20370B841B90E08217930760F4D8016C9213
S1130A30EA81FB8123818C819D81FC01EE0DFF1DE8
S1130A40218350C0F8018181811102C0C0824AC053
S1130A50815081832224239439C0D80114962D9186
S1130A603C91159712968D919C911397DC011196E8
S1130A708D919C9112978217930758F5281B390B77
S1130A80AE81BF81AA0DBB1D8C9190E0058002C090
S1130A90959587950A94E2F7992728173907C8F09E
S1130AA0D80111968C91119781110CC0E1E0EC935F
S1130AB08C819D81FC01EE0DFF1D0280F381E02DF0
S1130AC0C08212C08150D80111968C93DD24D39436
S1130AD00BC0F801C0828C819D81FC01EE0DFF1DCD
S1130AE0118202C022242394FFEF8F1A9F0A83E00D
S1130AF0A80EB11C53CEE881F981808187FF23C001
S1130B0040E050E020E030E0EA81FB818081918187
S1130B102817390798F4EC81FD81E40FF51FA281B1
S1130B20B3818C9180FD05C09081977F11F0816025
S1130B308C932F5F3F4F4A5F5F4FE6CFE881F98187
S1130B4080818F778083D11007C0E881F9812110DB
S1130B506FC080818E7F6EC0EA81FB81818588238E
S1130B60A1F3E881F981808180688083EA81FB8137
S1130B708185813051F740E050E020E030E096E09C
S1130B80D92EEA81FB816081718126173707E8F647
S1130B900C811D81FA01EE0FFF1FE00FF11F808110
S1130BA0982F977FA1F1853811F08330B1F5EE804D
S1130BB0FF80D701A40FB51F1296BC90BB2039F15A
S1130BC080E090E0C12C86179707F8F428173907BE
S1130BD0D1F0D89ED001D99EB00D1124A00FB11F21
S1130BE0AC91A43011F0A63871F4DC01AA0FBB1F3C
S1130BF0A80FB91FAE0DBF1D1296AC91BA1203C057
S1130C00CB01CC24C3940196DECFC11006C0028070
S1130C10F381E02D80818E7F05C00280F381E02D79
S1130C208081816080832F5F3F4F4D5F5F4FA9CFED
S1130C3080818160808380915D0190915E01E88173
S1130C40F98121813281A90148535F4F481759071F
S1130C5038F4821B930BAA24A394A3E0BA2E44C0B5
S1130C608217930710F080E004C1821B930B019755
S1130C70893C9105C0F3EFCF885C9109E881F98143
S1130C802181328128533F4F3283218323812111D3
S1130C9096C02481222311F021502483E881F98114
S1130CA02581222311F0215025838A809B80D40141
S1130CB016962C91169721111BC08A809B80F401F3
S1130CC02781211148C0EA81FB812381222361F01D
S1130CD020E030E0A0E0B0E0EA81FB814081518176
S1130CE0A417B50708F46EC0893C910528F6BBCF5C
S1130CF008811981F80124812111DFCFED90FC9046
S1130D0060E070E040E050E04E155F05F1F0EC81EA
S1130D10FD81E60FF71F2081233011F0283081F484
S1130D2024813581C280D380D6011196CD90DC9088
S1130D3012972C153D0520F42F5F3F4F35832483F4
S1130D404F5F5F4F6A5F7F4FDFCFF4012681D80189
S1130D5014962C93B2CF08811981D80115962C9141
S1130D602111B1CFE080F18060E070E040E050E01C
S1130D704E155F05F1F0EC81FD81E60FF71F208130
S1130D80233011F0283081F424813581C280D3804E
S1130D90D6011196CD90DC901297C216D30620F49A
S1130DA021503109358324834F5F5F4F6A5F7F4F42
S1130DB0DFCFF4012781D80115962C9384CF2150DD
S1130DC0238381CFA901440F551FEC81FD81E40FDA
S1130DD0F51F6081653809F047C06181662319F009
S1130DE06150618341C0A0826C817D81FB01E40F6D
S1130DF0F51F0280F381E02DB082EE81FF81E20FC6
S1130E00F31FD280DD2081F140E050E000E010E0EB
S1130E10EA81FB81608171810617170728F5EE814D
S1130E20FF81E40FF51F6281D61219C0BA01660F63
S1130E30771FEC81FD814F01860E971EF401E2803D
S1130E40F380F701F080F0FE0AC0F401A082EC8187
S1130E50FD81E60FF71F0280F381E02DB0820F5F62
S1130E601F4F4D5F5F4FD4CF11962D5F3F4F34CF4F
S1130E708BE0DF91CF911F910F91FF90EF90DF9066
S1130E80CF90BF90AF909F908F907F906F905F9026
S1130E904F903F902F900895809166019091670143
S1130EA0A0918001B0918101ED91FC911197408155
S1130EB0518125E0289FB001299F700D112420E065
S1130EC030E084179507A8F41496ED91FC911597DA
S1130ED0E20FF31FE60FF71FE0812B5F3F4FE0FDAA
S1130EE002C00196EECF909367018093660180E083
S1130EF00895109267011092660181E008954AE016
S1130F00489F9001499F300D1124E0918001F09198
S1130F1081010280F381E02DE20FF31F42814093AF
S1130F20F800E0918001F09181010280F381E02DCD
S1130F30E20FF31F43814093F900E0918001F091A7
S1130F4081010280F381E02DE20FF31F448140937D
S1130F50FA00E0918001F09181010280F381E02D9B
S1130F60E20FF31F40814093F200E0918001F09181
S1130F7081010280F381E02DE20FF31F4181409350
S1130F80F30065E0689FA001699F500D1124E09172
S1130F908001F09181010480F581E02DE40FF51FBB
S1130FA083818093E500E0918001F09181010480C8
S1130FB0F581E02DE40FF51F8381948188279F73C9
S1130FC09093E600A0918001B09181011496ED9177
S1130FD0FC911597E40FF51F808181FD60831496C1
S1130FE08D919C911597FC01E40FF51F80818C7104
S1130FF071F41296ED91FC911397E20FF31FE085C3
S1131000E295EF70F0E0E35BFE4F808101C08FE377
S11310108093E700E0918001F09181010280F381E7
S1131020E02DE20FF31F86818B3F10F48C5F01C02B
S11310308FEF8093E800E0918001F09181010280BC
S1131040F381E02DE20FF31F8781807F9185892B47
S11310508093E400E0918001F09181018281938189
S1131060FC01E20FF31F87818F708093E10082E11E
S11310708093E0008091E90081608093E900089505
S11310804F925F926F927F928F929F92AF92BF9294
S1131090CF92DF92EF92FF920F931F93CF93DF9340
S11310A080916501882309F431C1A0918001B09138
S11310B08101E0908201F0908301412C512C60E089
S11310C070E000E010E080E06624639491E8792EFB
S11310D0AA24AA94BB24B394CD90DC901197F60172
S11310E0208131810217130708F00CC1E70129910F
S11310F039917E011496ED91FC911597E60FF71F37
S113110040814C7150E05695479556954795411549
S1131110510521F041305105C1F0EBC012964D91BB
S11311205C911397440D551DEA0198859F7049857C
S1131130941710F4491B01C040E002C0369527956E
S11311404A95E2F732832183D5C012964D915C9182
S11311501397440D551DEA01098402C0369527955D
S11311600A94E2F732832183438154812115D2E02A
S11311703D0720F02F5F314091E005C0E501C21B1F
S1131180D30B9E0190E0E601DA80D0E4DD1205C0C5
S113119036952795992319F009C0992339F04F3FC3
S11311A09FE3590731F470828EE007C0882483944A
S11311B001C0812C2A30310598F41496ED91FC91EC
S11311C01597E60FF71F208127FF60821496ED9193
S11311D0FC911597E60FF71F5F73548343838AC00E
S11311E06A01CC24C0E3DC229D2C9294DFE09D2292
S11311F06A01CC24DFE0DD229D2D6A01C0EFCC2200
S1131200DD2454E0D694C7945A95E1F75C2D4F70D1
S1131210811032C0203D310560F0D3E09D1649F0C5
S113122093942F5C3109F6CF9F3041F09F5F255195
S1131230310926313105C0F79F3069F493E09912E2
S113124002C09FE008C0939495E005C05F3049F068
S11312505F5F2250310923303105C0F75F3009F058
S11312605BC09F3009F454C09F5F55E055C099207E
S113127061F09A942F5C3109203D3105C0F705C017
S1131280992341F091502551310926313105C0F798
S113129091110CC0911002C090E008C09A949AE099
S11312A005C0552341F051502250310923303105F6
S11312B0C0F751110DC09923B9F191505AE0233070
S11312C03105D0F605C02330310558F14FE05FE019
S11312D0292D30E0322F22273295307F392B242BD1
S11312E0C0E15C9F60011124C22AD32AD482C38244
S11312F001C0FFCF0F5F1F4F6B5F7F4FDAE04D0ED2
S1131300511CEACE92E09093650110C083E00EC0B8
S113131053E09516C1F25FE02330310508F07ACF2F
S1131320D7CF5FE04FE0D4CF50E0D2CFDF91CF9161
S11313301F910F91FF90EF90DF90CF90BF90AF90EF
S11313409F908F907F906F905F904F9008958F92B1
S11313509F92AF92BF92CF92DF92EF92FF92CF9380
S1131360DF93009709F46CC0DC01ED91FC91C0801F
S1131370D180E12CF12CA0E0B0E040E050E0BA01D3
S113138020E030E0AC15BD05B1F0EC01EA81FB8151
S1131390EE0DFF1DA080B1802A293B298280938015
S11313A0A480B580482959296A297B291196DAE055
S11313B0ED0EF11CE7CF411551056105710509F4E6
S11313C041C0E09165016A017B01CC24EE24FF2435
S11313D0DB01CA0188279927BB27E11115C0209397
S11313E0F0003093F1004093F400CD2CDE2CEF2C70
S11313F0FF24C092F500CD01AA27BB278093F600F5
S113140081E0809365011AC0E091F0002E2B2093B7
S1131410F0002091F100232B2093F1002091F4009F
S1131420422B4093F4002091F5002D292093F500E0
S11314302091F600822F8A2B8093F60080E003C06F
S11314408BE001C082E0DF91CF91FF90EF90DF90BD
S1131450CF90BF90AF909F908F900895009731F0F8
S1131460909383018093820180E008958BE0089536
S1131470CF93DF9300D000D0CDB7DEB710926901CF
S113148010926A0110926B0110926C016115710542
S113149009F4DBC0009709F4D8C020916501222328
S11314A009F4D5C0243009F093C0109268018091EA
S11314B0E90080FF8BC02091E80030E0A6E0B0E0B6
S11314C00E94D10B6093690170936A0180936B0150
S11314D090936C012091E3002F70DC01CB01820F0B
S11314E0911DA11DB11D8093690190936A01A09380
S11314F06B01B0936C012091E400277004C0880F45
S1131500991FAA1FBB1F2A95D2F70E96A11DB11DC4
S11315108093690190936A01A0936B01B0936C016D
S11315202091E100237004C0880F991FAA1FBB1FDC
S11315302A95D2F722E0B695A795979587952A958F
S1131540D1F78093690190936A01A0936B01B093E2
S11315506C0119821A821B821C8221E049815A8102
S11315606B817C81481759076A077B07B0F4309177
S11315706801332329F089839A83AB83BC8320E0F9
S113158049815A816B817C814F5F5F4F6F4F7F4FE1
S113159049835A836B837C83E1CF2223B9F0809102
S11315A0E90080FF13C01092E000000082E1809304
S11315B0E000000081E08093E90080916101909156
S11315C062010196909362018093610181E042C0BF
S11315D090938101809380017093600160935F0117
S11315E0DC01ED91FC918281803411F488E003C028
S11315F0803879F58AE08093E200E0918001F091EF
S113160081010190F081E02D8481803108F080E136
S11316108093E30081E084BB80937400109267019F
S1131620109266010E944C0781110BC084E08093E4
S1131630650180916601909167010E947F0780E0B7
S113164009C082E08093650105C08BE003C083E09C
S113165001C082E00F900F900F900F90DF91CF9117
S113166008950097C9F0DC01ED91FC911197208158
S113167031812617370790F045E0469F9001479F38
S1131680300D11241496ED91FC911597E20FF31F80
S113169081E0808380E008958BE0089582E00895DE
S11316A00097D1F1DC01ED91FC91119720813181FA
S11316B02617370798F122811496ED91FC9115971E
S11316C0203459F485E0869FD001879FB00D112402
S11316D0AE0FBF1F84E392E00CC0203881F485E094
S11316E0869FD001879FB00D1124AE0FBF1F87E6E0
S11316F095E014969C938E93139780E001C082E04A
S113170095E0969F9001979F300D1124E20FF31FEF
S113171090819260908308958BE0089582E008950B
S11317201092E00081E0809368018091EE00609166
S1131730EF002091660130916701A901440F551F04
S1131740E0918201F0918301E40FF51F90E0962B64
S113175091838083809163019091640101969093B9
S1131760640180936301892B21F410926201109229
S113177061012F5F3F4F30936701209366010E9400
S11317804C07811109C084E0809365018091660152
S1131790909167010C947F07E0915F01F0916001E3
S11317A00994A29FB001B39FC001A39F700D811D36
S11317B01124911DB29F700D811D1124911D089556
S10717C0F894FFCFC7
S11317C403020100050403020403020100070605E1
S11317D45FB400864A03EB00000000000000AA5531
S11317E4016EA06D012E017A012B01140100010088
S11317F4040005001405140148013E0173010000AE
S1131804800000000001000401008030003F1C0B34
S107181405030100C3
S9030000FC
