S013000051746F7563685F314D487A2E73726563FE
S11300000C945A000C9477000C9477000C947700AD
S11300100C9477000C9477000C9477000C94770080
S11300200C9477000C9477000C9477000C94FB01EB
S11300300C9477000C9477000C947E000C94770059
S11300400C9477000C9477000C9477000C94770050
S11300500C9477000C9477000C9477000C94770040
S11300600C9477000C9477000C9477000C94770030
S11300700C9477000C9477000C9477000C94770020
S11300800C9477000C9477000C9477000C94770010
S11300900C9477000C94AF020C9477000C947700C6
S11300A00C9477000C9477000C9477000C947700F0
S11300B00C94770011241FBECFEFD8E0DEBFCDBF74
S11300C011E0A0E0B1E0E4E6F7E102C005900D9292
S11300D0A634B107D9F721E0A6E4B1E001C01D922E
S11300E0A737B207E1F70E94D2010C94B00B0C942D
S11300F000000E94D3020E94290208951F920F92C9
S11301000FB60F9211242F933F934F935F936F93E6
S11301107F938F939F93AF93BF93EF93FF930E942B
S11301208902A89AFF91EF91BF91AF919F918F910E
S11301307F916F915F914F913F912F910F900FBEDF
S11301400F901F9018950E944D0280E090E00E944D
S1130150A002082E000C990B892F881F8827881F5E
S113016090E008959C01245031092930310580F034
S11301704BB1FC01EA5FFE4F21E030E0C901008091
S113018002C0880F991F0A94E2F7842B8BB9089553
S11301908830910584F448B1FC01EA5FFE4F21E008
S11301A030E0C901008002C0880F991F0A94E2F769
S11301B0842B88B9089545B1FC01EA5FFE4F21E024
S11301C030E0C901008002C0880F991F0A94E2F749
S11301D0842B85B908958BB11BB885B115B888B146
S11301E018B880914801909149010E94B200809111
S11301F048019091490101968F7099279093490184
S113020080934801809102019091030190938900A9
S11302108093880008958BB11BB885B115B888B157
S113022018B880914801909149010E94B2008091D0
S113023048019091490101979093490180934801A5
S11302408091480190914901992334F48FE090E022
S11302509093490180934801809102019091030198
S1130260909389008093880008958091040190916F
S11302700501892B19F00E94EB0008950E940B01DF
S11302800895AC01181619061CF520E030E085B17C
S113029015B89BB198709BB988B118B887EA91E6F4
S11302A00197F1F700C0000095B19F6195B99BB12A
S11302B09F6E9BB998B19C6398B987EA91E60197C0
S11302C0F1F700C000002F5F3F4F42175307F9F6C4
S11302D008951092010110920001809148019091BB
S11302E04901892BC9F585E090E00E944101809184
S11302F004019091050121E08227909305018093E8
S1130300040180914601909147010297DCF08091AD
S11303100201909103018E549109909303018093FB
S1130320020180910201909103011816190654F0FC
S113033086E891E0909303018093020110924701B3
S11303401092460180914601909147010196909345
S11303504701809346011FC08BB11BB885B115B806
S113036088B118B880914801909149010E94B20067
S11303708FE39DE023E0815090402040E1F700C0EE
S1130380000086E891E090930301809302011092AB
S113039047011092460181E090E09093010180931F
S11303A0000108958FEF8AB984B987B985B185B9F9
S11303B08BB18BB988B188B90E947900789482E0B6
S11303C08093800094E09093810080936F008091EB
S11303D0020190910301909389008093880078949E
S11303E00E94A300892BE1F30E9469010E94A300EB
S11303F0892BE1F7F5CF1F920F920FB60F921124BC
S11304002F933F934F935F936F937F938F939F9318
S1130410AF93BF93EF93FF938091000190910101FB
S1130420892B11F00E943501FF91EF91BF91AF919B
S11304309F918F917F916F915F914F913F912F91F8
S11304400F900FBE0F901F90189581E080934E017E
S1130450089588E087BDE5E6F0E080818F7E8083A3
S113046073988BE291E00E9477098BE691E00E94F9
S1130470FE0960E070E08BE291E00E94010B60E015
S113048070E08BE291E00E94200B46E651E060E0D0
S113049086E191E00E945703089580914F018130D5
S11304A051F465E272E08BE291E00E94080A811146
S11304B002C010924F0180914E01813009F51092D3
S11304C04E010E94100881110AC086E191E00E9449
S11304D07603882339F082E080934C0103C081E0E5
S11304E080934C01E0911601F091170180818823DB
S11304F024F481E080934F01089581E080934D01BD
S1130500089581E080934F0184E190E00E944C03C0
S1130510089580914A0190914B01449739F41092C7
S11305204B0110924A010E948102089580914A0170
S113053090914B01019690934B0180934A01089549
S11305409C01220F331F820F931F880F991FE09184
S11305501A01F0911B01E80FF91F808108951F9281
S11305600F920FB60F9211242F933F934F935F93E3
S11305706F937F938F939F93AF93BF93EF93FF9367
S11305800E94600BFF91EF91BF91AF919F918F916A
S11305907F916F915F914F913F912F910F900FBE7B
S11305A00F901F9018950E94D6020895E4E6F0E09B
S11305B080818F7D808382E084BD95E095BD8093AA
S11305C06E0080E00895CF92DF92FF920F931F9305
S11305D0CF93DF93EC01AE81BF81EB01CC0FDD1F24
S11305E0C60FD71FCA0FDB1FFA80FC014481558157
S11305F0E6E0E69F9001E79F300D11248A01020F87
S1130600131FF80122813381F90121813281F8011C
S113061004811581201B310BE8812E1B3109EC016B
S1130620EA81FB8100811181FA0140E050E040172A
S1130630510739F146175707F9F012968C91129722
S1130640F8121AC0808185588230E8F0C480D580C1
S113065082819381EC0189819A81C816D90660F45C
S11306608C199D09CC91D0E0C817D90728F48C1BAC
S11306709D0B2817390738F04F5F5F4F1396369656
S1130680D6CF80E001C081E0DF91CF911F910F911F
S1130690FF90DF90CF900895209150013091510147
S11306A0820F931F909351018093500108950097F6
S11306B0D9F041155105C1F026E0629FB001112423
S11306C0DC011496ED91FC911597E60FF71F21E0DC
S11306D0208314968D919C911597FC01E60FF71FCA
S11306E05383428380E008958BE008952F923F92D4
S11306F04F925F926F927F928F929F92AF92BF922E
S1130700CF92DF92EF92FF920F931F93CF93DF93D9
S1130710009709F47DC3EC01A12CB12C812C912C00
S1130720212CD12C33E0C32E45E8642E56E8752ED7
S113073067E0362E72E0472EE8E05E2EEA81FB8108
S1130740808191818816990608F0A5C17501EE0C87
S1130750FF1C0C811D810E0D1F1DD8018C9184304E
S113076009F4A2C038F4823001F108F049C08130A4
S113077059F08AC1853809F4C4C0863809F4F8C030
S1130780873009F081C139C1D8011296ED91FC91ED
S1130790139780818E7109F069C14C928C819D817F
S11307A0FC01EE0DFF1D518261C1F801218122235C
S11307B029F10280F381E02D253020F0818192819E
S11307C0D8010EC0D80114968D919C911597418142
S11307D052818417950769F04817590730F4019737
S11307E015969C938E93149704C00196F8019583F3
S11307F084832150D80111962C9338C1F80130C15B
S1130800D80114962D913C91159712968D919C9137
S11308101397DC0111964D915C91129724173507BB
S113082009F432C18E819F8142175307E0F4241BDF
S1130830350BDC01AA0DBB1D8C9190E0058002C034
S1130840959587950A94E2F799272817390708F4AC
S11308501BC18481882309F417C1F8013082EA811D
S1130860FB8124811AC0FC01EA0DFB1D421B530BC2
S1130870808190E04817590708F406C182818823D3
S113088031F0B401CE010E94E3028111FDC0E4E025
S1130890D801EC93EA81FB8122818C819D81FC014A
S11308A0EE0DFF1D2183E2C0D80114962D913C91D9
S11308B015971296ED91FC9113978181928182177D
S11308C0930710F4CC92D7C0EE81FF81EA0DFB1D93
S11308D0821B930B208130E02817390708F0C9C028
S11308E08281882331F0B401CE010E94E302811198
S11308F0CBC0F8018181882309F468C081508183C9
S1130900B5C0A881B981808513968C93EC81FD8153
S1130910EE0DFF1D44815581A281B38111968D9105
S11309209C91129784179507C0F0AE81BF81AA0DE0
S1130930BB1D6C91262F30E011967C917F5F02C025
S1130940359527957A95E2F7841B950B621B262F24
S113095030E02817390708F495C07082EA81FB81DA
S113096022818C819D81FC01EE0DFF1D218342C0FB
S1130970D80114966D917C9115971296ED91FC9186
S11309801397218132812617370758F411968C91D9
S11309901197811102C0CC9275C08150F8018183F6
S11309A071C0EE81FF81EA0DFB1D8081482F50E06C
S11309B091819F5F02C0559547959A95E2F7261B52
S11309C0370B841B90E08217930760F4D8016C9274
S11309D0EA81FB8123818C819D81FC01EE0DFF1D49
S11309E0218350C0F8018181811102C0C0824AC0B4
S11309F0815081832224239439C0D80114962D91E7
S1130A003C91159712968D919C911397DC01119648
S1130A108D919C9112978217930758F5281B390BD7
S1130A20AE81BF81AA0DBB1D8C9190E0058002C0F0
S1130A30959587950A94E2F7992728173907C8F0FE
S1130A40D80111968C91119781110CC0E1E0EC93BF
S1130A508C819D81FC01EE0DFF1D0280F381E02D50
S1130A60C08212C08150D80111968C93DD24D39496
S1130A700BC0F801C0828C819D81FC01EE0DFF1D2D
S1130A80118202C022242394FFEF8F1A9F0A83E06D
S1130A90A80EB11C53CEE881F981808187FF23C061
S1130AA040E050E020E030E0EA81FB8180819181E8
S1130AB02817390798F4EC81FD81E40FF51FA28112
S1130AC0B3818C9180FD05C09081977F11F0816086
S1130AD08C932F5F3F4F4A5F5F4FE6CFE881F981E8
S1130AE080818F778083D11007C0E881F98121103C
S1130AF06FC080818E7F6EC0EA81FB8181858823EF
S1130B00A1F3E881F981808180688083EA81FB8197
S1130B108185813051F740E050E020E030E096E0FC
S1130B20D92EEA81FB816081718126173707E8F6A7
S1130B300C811D81FA01EE0FFF1FE00FF11F808170
S1130B40982F977FA1F1853811F08330B1F5EE80AD
S1130B50FF80D701A40FB51F1296BC90BB2039F1BA
S1130B6080E090E0C12C86179707F8F4281739071E
S1130B70D1F0D89ED001D99EB00D1124A00FB11F81
S1130B80AC91A43011F0A63871F4DC01AA0FBB1F9C
S1130B90A80FB91FAE0DBF1D1296AC91BA1203C0B7
S1130BA0CB01CC24C3940196DECFC11006C00280D1
S1130BB0F381E02D80818E7F05C00280F381E02DDA
S1130BC08081816080832F5F3F4F4D5F5F4FA9CF4E
S1130BD08081816080838091500190915101E881EE
S1130BE0F98121813281A90148535F4F4817590780
S1130BF038F4821B930BAA24A394A3E0BA2E44C016
S1130C008217930710F080E004C1821B930B0197B5
S1130C10893C9105C0F3EFCF885C9109E881F981A3
S1130C202181328128533F4F328321832381211133
S1130C3096C02481222311F021502483E881F98174
S1130C402581222311F0215025838A809B80D401A1
S1130C5016962C91169721111BC08A809B80F40153
S1130C602781211148C0EA81FB812381222361F07D
S1130C7020E030E0A0E0B0E0EA81FB8140815181D6
S1130C80A417B50708F46EC0893C910528F6BBCFBC
S1130C9008811981F80124812111DFCFED90FC90A6
S1130CA060E070E040E050E04E155F05F1F0EC814B
S1130CB0FD81E60FF71F2081233011F0283081F4E5
S1130CC024813581C280D380D6011196CD90DC90E9
S1130CD012972C153D0520F42F5F3F4F3583248355
S1130CE04F5F5F4F6A5F7F4FDFCFF4012681D801EA
S1130CF014962C93B2CF08811981D80115962C91A2
S1130D002111B1CFE080F18060E070E040E050E07C
S1130D104E155F05F1F0EC81FD81E60FF71F208190
S1130D20233011F0283081F424813581C280D380AE
S1130D30D6011196CD90DC901297C216D30620F4FA
S1130D4021503109358324834F5F5F4F6A5F7F4FA2
S1130D50DFCFF4012781D80115962C9384CF21503D
S1130D60238381CFA901440F551FEC81FD81E40F3A
S1130D70F51F6081653809F047C06181662319F069
S1130D806150618341C0A0826C817D81FB01E40FCD
S1130D90F51F0280F381E02DB082EE81FF81E20F26
S1130DA0F31FD280DD2081F140E050E000E010E04C
S1130DB0EA81FB81608171810617170728F5EE81AE
S1130DC0FF81E40FF51F6281D61219C0BA01660FC4
S1130DD0771FEC81FD814F01860E971EF401E2809E
S1130DE0F380F701F080F0FE0AC0F401A082EC81E8
S1130DF0FD81E60FF71F0280F381E02DB0820F5FC3
S1130E001F4F4D5F5F4FD4CF11962D5F3F4F34CFAF
S1130E108BE0DF91CF911F910F91FF90EF90DF90C6
S1130E20CF90BF90AF909F908F907F906F905F9086
S1130E304F903F902F9008958091590190915A01BD
S1130E40A0917301B0917401ED91FC9111974081CF
S1130E50518125E0289FB001299F700D112420E0C5
S1130E6030E084179507A8F41496ED91FC9115973A
S1130E70E20FF31FE60FF71FE0812B5F3F4FE0FD0A
S1130E8002C00196EECF90935A018093590180E0FD
S1130E90089510925A011092590181E008954AE090
S1130EA0489F9001499F300D1124E0917301F09106
S1130EB074010280F381E02DE20FF31F428140931D
S1130EC0F800E0917301F09174010280F381E02D48
S1130ED0E20FF31F43814093F900E0917301F09115
S1130EE074010280F381E02DE20FF31F44814093EB
S1130EF0FA00E0917301F09174010280F381E02D16
S1130F00E20FF31F40814093F200E0917301F091EE
S1130F1074010280F381E02DE20FF31F41814093BD
S1130F20F30065E0689FA001699F500D1124E091D2
S1130F307301F09174010480F581E02DE40FF51F35
S1130F4083818093E500E0917301F0917401048042
S1130F50F581E02DE40FF51F8381948188279F7329
S1130F609093E600A0917301B09174011496ED91F1
S1130F70FC911597E40FF51F808181FD6083149621
S1130F808D919C911597FC01E40FF51F80818C7164
S1130F9071F41296ED91FC911397E20FF31FE08523
S1130FA0E295EF70F0E0E05CFE4F808101C08FE3DA
S1130FB08093E700E0917301F09174010280F38162
S1130FC0E02DE20FF31F86818B3F10F48C5F01C08C
S1130FD08FEF8093E800E0917301F0917401028037
S1130FE0F381E02DE20FF31F8781807F9185892BA8
S1130FF08093E400E0917301F09174018281938104
S1131000FC01E20FF31F87818F708093E10082E17E
S11310108093E0008091E90081608093E900089565
S11310204F925F926F927F928F929F92AF92BF92F4
S1131030CF92DF92EF92FF920F931F93CF93DF93A0
S113104080915801882309F431C1A0917301B091B2
S11310507401E0907501F0907601412C512C60E010
S113106070E000E010E080E06624639491E8792E5B
S1131070AA24AA94BB24B394CD90DC901197F601D2
S1131080208131810217130708F00CC1E70129916F
S113109039917E011496ED91FC911597E60FF71F97
S11310A040814C7150E056954795569547954115AA
S11310B0510521F041305105C1F0EBC012964D911C
S11310C05C911397440D551DEA0198859F704985DD
S11310D0941710F4491B01C040E002C036952795CF
S11310E04A95E2F732832183D5C012964D915C91E3
S11310F01397440D551DEA01098402C036952795BE
S11311000A94E2F732832183438154812115D2E08A
S11311103D0720F02F5F314091E005C0E501C21B7F
S1131120D30B9E0190E0E601DA80D0E4DD1205C025
S113113036952795992319F009C0992339F04F3F23
S11311409FE3590731F470828EE007C088248394AA
S113115001C0812C2A30310598F41496ED91FC914C
S11311601597E60FF71F208127FF60821496ED91F3
S1131170FC911597E60FF71F5F73548343838AC06E
S11311806A01CC24C0E3DC229D2C9294DFE09D22F2
S11311906A01CC24DFE0DD229D2D6A01C0EFCC2260
S11311A0DD2454E0D694C7945A95E1F75C2D4F7032
S11311B0811032C0203D310560F0D3E09D1649F026
S11311C093942F5C3109F6CF9F3041F09F5F2551F6
S11311D0310926313105C0F79F3069F493E0991243
S11311E002C09FE008C0939495E005C05F3049F0C9
S11311F05F5F2250310923303105C0F75F3009F0B9
S11312005BC09F3009F454C09F5F55E055C09920DE
S113121061F09A942F5C3109203D3105C0F705C077
S1131220992341F091502551310926313105C0F7F8
S113123091110CC0911002C090E008C09A949AE0F9
S113124005C0552341F05150225031092330310556
S1131250C0F751110DC09923B9F191505AE02330D0
S11312603105D0F605C02330310558F14FE05FE079
S1131270292D30E0322F22273295307F392B242B31
S1131280C0E15C9F60011124C22AD32AD482C382A4
S113129001C0FFCF0F5F1F4F6B5F7F4FDAE04D0E32
S11312A0511CEACE92E09093580110C083E00EC026
S11312B053E09516C1F25FE02330310508F07ACF90
S11312C0D7CF5FE04FE0D4CF50E0D2CFDF91CF91C2
S11312D01F910F91FF90EF90DF90CF90BF90AF9050
S11312E09F908F907F906F905F904F9008958F9212
S11312F09F92AF92BF92CF92DF92EF92FF92CF93E1
S1131300DF93009709F46CC0DC01ED91FC91C0807F
S1131310D180E12CF12CA0E0B0E040E050E0BA0133
S113132020E030E0AC15BD05B1F0EC01EA81FB81B1
S1131330EE0DFF1DA080B1802A293B298280938075
S1131340A480B580482959296A297B291196DAE0B5
S1131350ED0EF11CE7CF411551056105710509F446
S113136041C0E09158016A017B01CC24EE24FF24A2
S1131370DB01CA0188279927BB27E11115C02093F7
S1131380F0003093F1004093F400CD2CDE2CEF2CD0
S1131390FF24C092F500CD01AA27BB278093F60055
S11313A081E0809358011AC0E091F0002E2B209325
S11313B0F0002091F100232B2093F1002091F40000
S11313C0422B4093F4002091F5002D292093F50041
S11313D02091F600822F8A2B8093F60080E003C0D0
S11313E08BE001C082E0DF91CF91FF90EF90DF901E
S11313F0CF90BF90AF909F908F900895009731F059
S1131400909376018093750180E008958BE00895B0
S1131410CF93DF9300D000D0CDB7DEB710925C013C
S113142010925D0110925E0110925F0161157105C9
S113143009F4DBC0009709F4D8C020915801222395
S113144009F4D5C0243009F093C010925B01809157
S1131450E90080FF8BC02091E80030E0A6E0B0E016
S11314600E94A10B60935C0170935D0180935E0107
S113147090935F012091E3002F70DC01CB01820F78
S1131480911DA11DB11D80935C0190935D01A093FA
S11314905E01B0935F012091E400277004C0880FBF
S11314A0991FAA1FBB1F2A95D2F70E96A11DB11D25
S11314B080935C0190935D01A0935E01B0935F0102
S11314C02091E100237004C0880F991FAA1FBB1F3D
S11314D02A95D2F722E0B695A795979587952A95F0
S11314E0D1F780935C0190935D01A0935E01B0936A
S11314F05F0119821A821B821C8221E049815A8170
S11315006B817C81481759076A077B07B0F43091D7
S11315105B01332329F089839A83AB83BC8320E066
S113152049815A816B817C814F5F5F4F6F4F7F4F41
S113153049835A836B837C83E1CF2223B9F0809162
S1131540E90080FF13C01092E000000082E1809364
S1131550E000000081E08093E900809154019091C3
S113156055010196909355018093540181E042C046
S113157090937401809373017093530160935201AB
S1131580DC01ED91FC918281803411F488E003C088
S1131590803879F58AE08093E200E0917301F0915C
S11315A074010190F081E02D8481803108F080E1A4
S11315B08093E30081E084BB8093740010925A010D
S11315C0109259010E941C0781110BC084E0809382
S11315D058018091590190915A010E944F0780E06F
S11315E009C082E08093580105C08BE003C083E00A
S11315F001C082E00F900F900F900F90DF91CF9178
S113160008950097C9F0DC01ED91FC9111972081B8
S113161031812617370790F045E0469F9001479F98
S1131620300D11241496ED91FC911597E20FF31FE0
S113163081E0808380E008958BE0089582E008953E
S11316400097D1F1DC01ED91FC911197208131815A
S11316502617370798F122811496ED91FC9115977E
S1131660203459F485E0869FD001879FB00D112462
S1131670AE0FBF1F84E392E00CC0203881F485E0F4
S1131680869FD001879FB00D1124AE0FBF1F87E640
S113169095E014969C938E93139780E001C082E0AA
S11316A095E0969F9001979F300D1124E20FF31F50
S11316B090819260908308958BE0089582E008956C
S11316C01092E00081E080935B018091EE006091D4
S11316D0EF002091590130915A01A901440F551F7F
S11316E0E0917501F0917601E40FF51F90E0962BDF
S11316F09183808380915601909157010196909334
S1131700570180935601892B21F4109255011092B0
S113171054012F5F3F4F30935A01209359010E9487
S11317201C07811109C084E08093580180915901FC
S113173090915A010C944F07E0915201F09153019A
S11317400994A29FB001B39FC001A39F700D811D96
S11317501124911DB29F700D811D1124911D0895B6
S1071760F894FFCF27
S113176401008601010003020100050403020403CD
S1131774020100070605600121016D011E01140127
S113178400010001000200140514013B013101664B
S11317940100008000000000000204010080300009
S10917A43F1C0B050301CC
S9030000FC
