S014000043757272656E745F546573742E737265632E
S11300000C945A000C946F000C946F000C946F00C5
S11300100C946F000C946F000C946F000C946F00A0
S11300200C946F000C946F000C946F000C946F0090
S11300300C946F000C946F000C946F000C946F0080
S11300400C946F000C946F000C946F000C946F0070
S11300500C946F000C946F000C946F000C946F0060
S11300600C946F000C946F000C946F000C946F0050
S11300700C946F000C946F000C946F000C946F0040
S11300800C946F000C946F000C946F000C946F0030
S11300900C946F000C946F000C946F000C946F0020
S11300A00C946F000C946F000C946F000C946F0010
S11300B00C946F0011241FBECFEFD8E0DEBFCDBF7C
S11300C011E0A0E0B1E0E2E0F2E002C005900D92A0
S11300D0A031B107D9F70E9471000C94FF000C9471
S11300E000008FEF8AB99FE794B987B98BB18BB9B8
S11300F085B185B988B188B9E0E0F1E081E090E0AC
S113010061E04BB19C01008002C0220F331F0A94AE
S1130110E2F7242B2BB92FEF33E244EF2150304088
S11301204040E1F700C000003BB1AC01008002C0D8
S1130130440F551F0A94E2F7242F209523232BB94B
S11301404BB19C01018002C0220F331F0A94E2F7D5
S1130150242B2BB92FEF33E244EF215030404040A1
S1130160E1F700C000003BB1AC01018002C0440FC4
S1130170551F0A94E2F7242F209523232BB94BB162
S11301809C01028002C0220F331F0A94E2F7242B41
S11301902BB92FEF33E244EF215030404040E1F7D8
S11301A000C000004BB19C01028002C0220F331F2B
S11301B00A94E2F724232BB925B12F6125B92BB179
S11301C02F6E2BB928B12C6328B92FEF33E244EFFB
S11301D0215030404040E1F700C0000025B115B87F
S11301E02BB11BB828B118B82FEF33E244EF2150DC
S11301F030404040E1F700C0000063BF82CFF89474
S1050200FFCF2A
S113020203020100050403020403020100070605B8
S9030000FC
