S017000043617463685F5468655F4C696768742E7372656353
S11300000C945A000C946F000C946F000C946F00C5
S11300100C946F000C946F000C946F000C946F00A0
S11300200C946F000C946F000C946F000C946F0090
S11300300C946F000C946F000C946F000C946F0080
S11300400C946F000C946F000C946F000C946F0070
S11300500C946F000C946F000C946F000C946F0060
S11300600C946F000C946F000C946F000C946F0050
S11300700C946F000C946F000C946F000C946F0040
S11300800C946F000C946F000C946F000C946F0030
S11300900C946F000C946F000C946F000C946F0020
S11300A00C946F000C946F000C946F000C946F0010
S11300B00C946F0011241FBECFEFD8E0DEBFCDBF7C
S11300C011E0A0E0B1E0E0EDF1E002C005900D9296
S11300D0A430B107D9F70E94D9000C94E6000C941F
S11300E000008BB11BB885B115B8809100019091C7
S11300F00101892B69F025B181E090E000900201B3
S113010002C0880F991F0A94E2F7822B85B90CC0AC
S11301102BB181E090E00090020102C0880F991F8A
S11301200A94E2F7822B8BB980910201909103012A
S113013001979093030180930201892B81F48091AC
S113014000019091010121E08227909301018093A5
S1130150000187E090E090930301809302018FEF08
S113016090E722E0815090402040E1F700C0000079
S113017008958AE090E02FEF35B115B83BB11BB874
S11301803FEF41EE54E0315040405040E1F700C0B1
S1130190000035B125B93BB12BB93FEF41EE54E036
S11301A0315040405040E1F700C00000019721F772
S11301B008958AB18AB984B184B985B115B88BB16F
S11301C01BB80E94B9000E947100FDCFF894FFCFC4
S10701D0010007001F
S9030000FC
