:100000000C945A000C9477000C9477000C947700B1
:100010000C94D0010C9477000C9477000C9477002A
:100020000C9477000C9477000C9477000C94F501F5
:100030000C9477000C9477000C9477000C94770064
:100040000C9477000C9477000C9477000C94770054
:100050000C9477000C9477000C9477000C94770044
:100060000C9477000C9477000C9477000C94770034
:100070000C9477000C9477000C9477000C94770024
:100080000C9477000C9477000C9477000C94770014
:100090000C9477000C9477000C9477000C94770004
:1000A0000C9477000C9477000C9477000C947700F4
:1000B0000C94770011241FBECFEFD8E0DEBFCDBF78
:1000C00011E0A0E0B1E0EAE4F4E002C005900D9296
:1000D000A431B107D9F721E0A4E1B1E001C01D923C
:1000E000A831B207E1F70E941C010C9423020C9482
:1000F00000009C01245031092930310580F04BB1BA
:10010000FC01EC5FFE4F21E030E0C901008002C03D
:10011000880F991F0A94E2F7842B8BB908958830D1
:10012000910584F448B1FC01EC5FFE4F21E030E022
:10013000C901008002C0880F991F0A94E2F7842B3E
:1001400088B9089545B1FC01EC5FFE4F21E030E035
:10015000C901008002C0880F991F0A94E2F7842B1E
:1001600085B908958BB11BB885B115B888B118B899
:1001700080911601909117010E94790080911601DB
:100180009091170101968F70992790931701809392
:10019000160108958BB11BB885B115B888B118B890
:1001A00080911601909117010E94790080911601AB
:1001B0009091170101972AF09093170180931601EF
:1001C00008958FE090E090931701809316010895B1
:1001D0008091020190910301892B19F00E94B200D5
:1001E00008950E94CA000895AC01181619061CF55E
:1001F00020E030E085B115B89BB198709BB988B10B
:1002000018B887EA91E60197F1F700C0000095B1B0
:100210009F6195B99BB19F6E9BB998B19C6398B94A
:1002200087EA91E60197F1F700C000002F5F3F4F8A
:1002300042175307F9F608958AB18FEF8AB984B14E
:100240008F6784B98DEF87B9419A8BB18BB92F9A9B
:10025000109280008CE08093810010928200809147
:100260000001909101019093890080938800109281
:1002700085001092840082E080936F00E8E6F0E051
:10028000808182608083ECE6F0E080818260808300
:10029000789485E090E00E94F400FFCF82309105D1
:1002A00071F01CF4992344F416C08430910569F070
:1002B0004CF0059769F00FC086E891E0089588E357
:1002C00091E008958AEE90E008958CE990E0089519
:1002D0008EE490E0089580E090E00895F894809195
:1002E000160190911701892BC1F585E090E00E94DD
:1002F000F400809102019091030121E08227909304
:1003000003018093020180911401909115018230C4
:100310009105CCF00E944E01909301018093000161
:1003200080910001909101011816190664F0109255
:1003300015011092140180E090E00E944E0190930C
:1003400001018093000180911401909115010196A3
:10035000909315018093140121C08BB11BB885B116
:1003600015B888B118B880911601909117010E94B4
:1003700079008FE39DE023E0815090402040E1F739
:1003800000C00000109215011092140180E090E06E
:100390000E944E019093010180930001789408958A
:1003A0001F920F920FB60F9211242F933F934F93EA
:1003B0005F936F937F938F939F93AF93BF93EF93CD
:1003C000FF93319B0E946E01FF91EF91BF91AF911E
:1003D0009F918F917F916F915F914F913F912F915D
:1003E0000F900FBE0F901F9018951F920F920FB68F
:1003F0000F9211242F933F934F935F936F937F93AB
:100400008F939F93AF93BF93EF93FF9382E086BB4D
:100410008091000190910101909389008093880060
:100420000E94E800FF91EF91BF91AF919F918F9152
:100430007F916F915F914F913F912F910F900FBEE0
:0A0440000F901F901895F894FFCF5D
:10044A0086010100030201000504030204030201FC
:04045A00000706058C
:00000001FF
