S017000043617463685F5468655F4C696768742E7372656353
S11300000C945A000C9477000C9477000C947700AD
S11300100C9477000C9477000C9477000C94770080
S11300200C9477000C9477000C9477000C94770070
S11300300C9477000C9477000C9477000C94770060
S11300400C9477000C9477000C9477000C94770050
S11300500C9477000C9477000C9477000C94770040
S11300600C9477000C9477000C9477000C94770030
S11300700C9477000C9477000C9477000C94770020
S11300800C9477000C9477000C9477000C94770010
S11300900C9477000C9477000C9477000C94770000
S11300A00C9477000C9477000C9477000C947700F0
S11300B00C94770011241FBECFEFD8E0DEBFCDBF74
S11300C011E0A0E0B1E0EAEAF1E002C005900D928F
S11300D0A030B107D9F721E0A0E0B1E001C01D9242
S11300E0A030B207E1F70E94BB000C94D3000C943B
S11300F00000181619066CF420E030E0EFE3FCE988
S11301003197F1F700C000002F5F3F4F821793072C
S1130110A9F708950F931F93CF93DF931816190629
S11301202CF5EC0100E010E085B115B88BB18870B6
S11301308BB988B118B82FEF81EE94E0215080403C
S11301409040E1F700C0000095B19F6195B99BB163
S11301509F6E9BB998B19C6398B985E090E00E942A
S113016079000F5F1F4FC017D107F1F6DF91CF91D0
S11301701F910F9108958AB18AB984B184B987B166
S113018087B985B115B88BB11BB888B118B88AE0A6
S113019090E00E948A0085B115B88BB11BB888B174
S10D01A018B8589AF8CFF894FFCF6E
S9030000FC
