:100000000C945A000C9477000C9477000C947700B1
:100010000C94BD010C9477000C9477000C9477003D
:100020000C9477000C9477000C9477000C94770074
:100030000C9477000C9477000C9477000C94770064
:100040000C9477000C9477000C9477000C94770054
:100050000C9477000C9477000C9477000C94770044
:100060000C9477000C9477000C9477000C94770034
:100070000C9477000C9477000C9477000C94770024
:100080000C9477000C9477000C9477000C94770014
:100090000C9477000C9477000C9477000C94770004
:1000A0000C9477000C9477000C9477000C947700F4
:1000B0000C94770011241FBECFEFD8E0DEBFCDBF78
:1000C00011E0A0E0B1E0E8E6F4E002C005900D9296
:1000D000AC31B107D9F721E0ACE1B1E001C01D922C
:1000E000A632B207E1F70E94F7010C9432020C9499
:1000F00000009C01245031092930310580F04BB1BA
:10010000FC01E45FFE4F21E030E0C901008002C045
:10011000880F991F0A94E2F7842B8BB908958830D1
:10012000910584F448B1FC01E45FFE4F21E030E02A
:10013000C901008002C0880F991F0A94E2F7842B3E
:1001400088B9089545B1FC01E45FFE4F21E030E03D
:10015000C901008002C0880F991F0A94E2F7842B1E
:1001600085B90895AC01181619061CF520E030E099
:1001700085B115B89BB198709BB988B118B887EA5A
:1001800091E60197F1F700C0000095B19F6195B924
:100190009BB19F6E9BB998B19C6398B987EA91E631
:1001A0000197F1F700C000002F5F3F4F4217530740
:1001B000F9F60895CF93DF9300D0CDB7DEB79A83D9
:1001C000898389819A811816190674F480E090E079
:1001D000E3ECF9E03197F1F700C0000001962981C6
:1001E0003A8182179307A4F30F900F90DF91CF917C
:1001F00008958BB11BB885B115B888B118B8809136
:100200002201909123010E94790080912201909116
:10021000230101968F7099279093230180932201E7
:10022000892B29F480911C018F5F80931C018091A0
:100230002401909125010E94DA0008958BB11BB82A
:1002400085B115B888B118B8809122019091230129
:100250000E947900809122019091230101972AF058
:1002600090932301809322010BC08FE090E0909344
:1002700023018093220180911C018F5F80931C01D8
:1002800080912401909125010E94DA0008958091C7
:10029000000190910101892B19F00E94F900089545
:1002A0000E941E010895CF93DF93EC01892BE9F59D
:1002B00085E090E00E94B2008091000190910101E0
:1002C00021E08227909301018093000180911E011B
:1002D00090911F010397FCF08091200190912101E2
:1002E00001969093210180932001059744F010928C
:1002F0001F0110921E011092210110922001E09125
:100300002001F0912101E95FFE4F808190E0909300
:1003100025018093240180911E0190911F01019677
:1003200090931F0180931E0121C08BB11BB885B132
:1003300015B888B118B880912201909123010E94CC
:10034000790082E390E00E94DA001092210110927D
:1003500020018091070190E0909325018093240172
:1003600081E090E090931F0180931E01D0932301C0
:10037000C0932201DF91CF9108951F920F920FB683
:100380000F9211242F933F934F935F936F937F931B
:100390008F939F93AF93BF93EF93FF9331990AC0CD
:1003A00080912201909123010E94530110921D011E
:1003B00010921C01FF91EF91BF91AF919F918F918E
:1003C0007F916F915F914F913F912F910F900FBE51
:1003D0000F901F90189581E080931D018BB11BB881
:1003E00085B115B888B118B810921C0108958AB16A
:1003F0008FEF8AB984B18F6784B98DEF87B9419A3D
:100400008BB18BB92F9AE0912001F0912101E95F26
:10041000FE4F808190E09093250180932401E8E6CF
:10042000F0E0808182608083ECE6F0E08081826091
:10043000808385E090E00E94B200789480911D0155
:10044000811102C00E944701E0912001F091210139
:10045000EE5FFE4F908180911C01891778F30E9416
:08046000EB01ECCFF894FFCF93
:10046800010013171F315E0A080604020302010087
:0C0478000504030204030201000706054E
:00000001FF
