S017000043617463685F5468655F4C696768742E7372656353
S11300000C945A000C9477000C9477000C947700AD
S11300100C9477000C9477000C9477000C94770080
S11300200C9477000C9477000C9477000C94770070
S11300300C9477000C9477000C9477000C94770060
S11300400C9477000C9477000C9477000C94770050
S11300500C9477000C9477000C9477000C94770040
S11300600C9477000C9477000C9477000C94770030
S11300700C9477000C9477000C9477000C94770020
S11300800C9477000C9477000C9477000C94770010
S11300900C9477000C9477000C9477000C94770000
S11300A00C9477000C9477000C9477000C947700F0
S11300B00C94770011241FBECFEFD8E0DEBFCDBF74
S11300C011E0A0E0B1E0E4E9F2E002C005900D9295
S11300D0A031B107D9F721E0A0E1B1E001C01D9240
S11300E0A231B207E1F70E9424010C9448010C9458
S11300F0000080911001909111019C01245031095C
S11301002930310580F04BB1FC01E050FF4F21E074
S113011030E0C901008002C0880F991F0A94E2F7F9
S1130120842B8BB908958830910584F448B1FC017F
S1130130E050FF4F21E030E0C901008002C0880F89
S1130140991F0A94E2F7842B88B9089545B1FC01FC
S1130150E050FF4F21E030E0C901008002C0880F69
S1130160991F0A94E2F7842B85B908958BB11BB8C3
S113017085B115B888B118B80E9479008091100132
S11301809091110101968F7099279093110180939A
S113019010012FEF81EE94E0215080409040E1F770
S11301A000C0000008958BB11BB885B115B888B1A3
S11301B018B80E9479008091100190911101019763
S11301C02AF0909311018093100106C08FE090E013
S11301D090931101809310012FEF81EE94E0215050
S11301E080409040E1F700C000000895AC0118166B
S11301F019064CF520E030E085B115B89BB1987034
S11302009BB988B118B86FEF81EE94E061508040DB
S11302109040E1F700C0000095B19F6195B99BB192
S11302209F6E9BB998B19C6398B96FEF81EE94E08F
S1130230615080409040E1F700C000002F5F3F4FC5
S113024042175307C9F608958AB18AB984B184B9AB
S113025087B187B985B115B88BB11BB88AE090E036
S11302600E94F600C0E0D0E003C00E94B6002196D0
S1130270C031D105D4F3C0E1D0E00E94D30021976E
S1130280E1F78AE090E00E94F600C0E0D0E0F0CF11
S1070290F894FFCF0C
S11302940302010005040302040302010007060526
S9030000FC
