S017000043617463685F5468655F4C696768742E7372656353
S11300000C945A000C9477000C9477000C947700AD
S11300100C9477000C9477000C9477000C94770080
S11300200C9477000C9477000C9477000C94770070
S11300300C9477000C9477000C9477000C94770060
S11300400C9477000C9477000C9477000C94770050
S11300500C9477000C9477000C9477000C94770040
S11300600C9477000C9477000C9477000C94770030
S11300700C9477000C9477000C9477000C94770020
S11300800C9477000C9477000C9477000C94770010
S11300900C9477000C9477000C9477000C94770000
S11300A00C9477000C9477000C9477000C947700F0
S11300B00C94770011241FBECFEFD8E0DEBFCDBF74
S11300C011E0A0E0B1E0E6EBF2E002C005900D9291
S11300D0A031B107D9F721E0A0E1B1E001C01D9240
S11300E0A231B207E1F70E9433010C9459010C9438
S11300F0000080911001909111019C01245031095C
S11301002930310580F04BB1FC01E050FF4F21E074
S113011030E0C901008002C0880F991F0A94E2F7F9
S1130120842B8BB908958830910584F448B1FC017F
S1130130E050FF4F21E030E0C901008002C0880F89
S1130140991F0A94E2F7842B88B9089545B1FC01FC
S1130150E050FF4F21E030E0C901008002C0880F69
S1130160991F0A94E2F7842B85B908958BB11BB8C3
S113017085B115B888B118B80E9479008091100132
S11301809091110101968F7099279093110180939A
S113019010012FEF80E792E0215080409040E1F77A
S11301A000C000000895181619066CF420E030E031
S11301B0EFE3FCE93197F1F700C000002F5F3F4FF8
S11301C082179307A9F708958BB11BB885B115B8A9
S11301D088B118B80E9479008091100190911101A2
S11301E001972AF0909311018093100106C08FE0CB
S11301F090E090931101809310018AE090E00E94B6
S1130200D30008950F931F93CF93DF931816190605
S11302102CF5EC0100E010E085B115B88BB18870C5
S11302208BB988B118B82FEF81EE94E0215080404B
S11302309040E1F700C0000095B19F6195B99BB172
S11302409F6E9BB998B19C6398B985E090E00E9439
S1130250D3000F5F1F4FC017D107F1F6DF91CF9185
S11302601F910F9108958AB18AB984B184B987B175
S113027087B985B115B88BB11BB888B118B88AE0B5
S113028090E00E940201C0E0D0E003C00E94B600EA
S11302902196C031D105D4F3CFE0D0E00E94E40030
S11302A02197E1F78AE090E00E940201C0E0D0E0EB
S10902B0F0CFF894FFCF2B
S11302B60302010005040302040302010007060504
S9030000FC
