:100000000C945A000C9477000C9477000C947700B1
:100010000C9458010C9477000C9477000C947700A2
:100020000C9477000C9477000C9477000C94DA0110
:100030000C9477000C9477000C9477000C94770064
:100040000C9477000C9477000C9477000C94770054
:100050000C9477000C9477000C9477000C94770044
:100060000C9477000C9477000C9477000C94770034
:100070000C9477000C9477000C9477000C94770024
:100080000C9477000C9477000C9477000C94770014
:100090000C9477000C9477000C9477000C94770004
:1000A0000C9477000C9477000C9477000C947700F4
:1000B0000C94770011241FBECFEFD8E0DEBFCDBF78
:1000C00011E0A0E0B1E0E0E0F4E002C005900D92A4
:1000D000A431B107D9F721E0A4E1B1E001C01D923C
:1000E000A831B207E1F70E942C010C94FE010C9498
:1000F00000009C01245031092930310580F04BB1BA
:10010000FC01EC5FFE4F21E030E0C901008002C03D
:10011000880F991F0A94E2F7842B8BB908958830D1
:10012000910584F448B1FC01EC5FFE4F21E030E022
:10013000C901008002C0880F991F0A94E2F7842B3E
:1001400088B9089545B1FC01EC5FFE4F21E030E035
:10015000C901008002C0880F991F0A94E2F7842B1E
:1001600085B908958BB11BB885B115B888B118B899
:1001700080911601909117010E94790080911601DB
:100180009091170101968F70992790931701809392
:100190001601809100019091010190938900809354
:1001A000880008958BB11BB885B115B888B118B80F
:1001B00080911601909117010E947900809116019B
:1001C0009091170101972AF09093170180931601DF
:1001D00006C08FE090E09093170180931601809104
:1001E0000001909101019093890080938800089507
:1001F0008091020190910301892B19F00E94B200B5
:1002000008950E94D2000895AC01181619061CF535
:1002100020E030E085B115B89BB198709BB988B1EA
:1002200018B887EA91E60197F1F700C0000095B190
:100230009F6195B99BB19F6E9BB998B19C6398B92A
:1002400087EA91E60197F1F700C000002F5F3F4F6A
:1002500042175307F9F608958AB18FEF8AB984B12E
:100260008F6784B98DEF87B9419A8BB18BB92F9A7B
:1002700082E08093800094E09093810080936F00EF
:1002800080910001909101019093890080938800F2
:10029000E8E6F0E0808182608083ECE6F0E0808137
:1002A00082608083789485E090E00E940401FFCF13
:1002B0001F920F920FB60F9211242F933F934F93DB
:1002C0005F936F937F938F939F93AF93BF93EF93BE
:1002D000FF9331995EC08091160190911701892B8F
:1002E000C9F585E090E00E9404018091020190919F
:1002F000030121E082279093030180930201809102
:100300001401909115010297DCF080910001909109
:1003100001018E5491099093010180930001809115
:100320000001909101011816190654F086E891E039
:100330009093010180930001109215011092140115
:10034000809114019091150101969093150180936D
:1003500014011FC08BB11BB885B115B888B118B88E
:1003600080911601909117010E9479008FE39DE022
:1003700023E0815090402040E1F700C0000086E873
:1003800091E0909301018093000110921501109269
:100390001401FF91EF91BF91AF919F918F917F9148
:1003A0006F915F914F913F912F910F900FBE0F90E2
:1003B0001F9018951F920F920FB60F9211242F9332
:1003C0003F934F935F936F937F938F939F93AF93DD
:1003D000BF93EF93FF930E94F800FF91EF91BF91BD
:1003E000AF919F918F917F916F915F914F913F91CD
:1003F0002F910F900FBE0F901F901895F894FFCF7C
:100400008601010003020100050403020403020146
:0404100000070605D6
:00000001FF
