S017000043617463685F5468655F4C696768742E7372656353
S11300000C945A000C9477000C9477000C947700AD
S11300100C945D010C9477000C9477000C94770099
S11300200C9477000C9477000C9477000C94770070
S11300300C9477000C9477000C9477000C94770060
S11300400C9477000C9477000C9477000C94770050
S11300500C9477000C9477000C9477000C94770040
S11300600C9477000C9477000C9477000C94770030
S11300700C9477000C9477000C9477000C94770020
S11300800C9477000C9477000C9477000C94770010
S11300900C9477000C9477000C9477000C94770000
S11300A00C9477000C9477000C9477000C947700F0
S11300B00C94770011241FBECFEFD8E0DEBFCDBF74
S11300C011E0A0E0B1E0E0EBF3E002C005900D9296
S11300D0A431B107D9F721E0A4E1B1E001C01D9238
S11300E0A831B207E1F70E943F010C94D6010C94A9
S11300F000009C01245031092930310580F04BB1B6
S1130100FC01EC5FFE4F21E030E0C901008002C039
S1130110880F991F0A94E2F7842B8BB908958830CD
S1130120910584F448B1FC01EC5FFE4F21E030E01E
S1130130C901008002C0880F991F0A94E2F7842B3A
S113014088B9089545B1FC01EC5FFE4F21E030E031
S1130150C901008002C0880F991F0A94E2F7842B1A
S113016085B90895181619066CF420E030E0E3EC24
S1130170F9E03197F1F700C000002F5F3F4F82177D
S11301809307A9F708958BB11BB885B115B888B149
S113019018B880911601909117010E9479008091FE
S11301A016019091170101968F709927909317016A
S11301B08093160180910001909101010E94B20088
S11301C008958BB11BB885B115B888B118B8809162
S11301D01601909117010E94790080911601909167
S11301E0170101972AF0909317018093160106C016
S11301F08FE090E0909317018093160180910001A5
S1130200909101010E94B2000895809102019091A1
S11302100301892B19F00E94C30008950E94E10094
S113022008950F931F93CF93DF931816190614F5AF
S1130230EC0100E010E085B115B88BB188708BB982
S113024088B118B887EA91E60197F1F700C0000079
S113025095B19F6195B99BB19F6E9BB998B19C6311
S113026098B98AE090E00E94B2000F5F1F4FC01758
S1130270D10709F7DF91CF911F910F9108958AB1AA
S11302808FEF8AB984B18F6784B98DEF87B9419AAA
S11302908BB18BB92F9AE8E6F0E08081826080838D
S11302A0ECE6F0E0808182608083789485E090E0E1
S11302B00E9411010E940501FDCF1F920F920FB6FB
S11302C00F9211242F933F934F935F936F937F93D8
S11302D08F939F93AF93BF93EF93FF93319955C03F
S11302E08091160190911701892BA9F585E090E082
S11302F00E941101809102019091030121E0822763
S1130300909303018093020180911401909115014F
S11303100297BCF080910001909101010297181698
S113032019062CF490930101809300010AC08AE01D
S113033090E09093010180930001109215011092B6
S11303401401809114019091150101969093150167
S1130350809314011AC08BB11BB885B115B888B14C
S113036018B880911601909117010E94790084E6D3
S113037090E00E94B2008AE090E0909301018093A3
S113038000011092150110921401FF91EF91BF9199
S1130390AF919F918F917F916F915F914F913F9119
S11303A02F910F900FBE0F901F901895F894FFCFC8
S11303B00A00010003020100050403020403020110
S10703C00007060523
S9030000FC
